:020000040800F2
:10000000005000207104000810B50020024CA047E9
:100010000120A04710BD00BF910B000830B5234B55
:1000200085B09847002422488047224D0222224B67
:1000300020464FF47A710094A84720461F4988470C
:100040001F4D20461F49A8471F4A20461378012B01
:1000500027D11E49A84700201D4A904750B10020D3
:100060000DF10F011B4B98479DF80F007F2801D120
:1000700005200EE00020184988470028EBDD00200D
:100080000DF10F01154A90479DF80F307F2BE2D1FB
:1000900000201349134A087079209047124B984763
:1000A00001E012498847002005B030BD690500080D
:1000B000F1000008CD09000809000008E90900085E
:1000C000F50700082C220008CA0200204722000879
:1000D000690C0008D10C00085D0A0008C10A00087C
:1000E000C9020020790100084D0300080D03000833
:1000F00008B5014B984708BDFD000008184B1A6869
:1001000022F00F001860196819601A6842F00800A0
:100110001860D96821F00102DA6008331B681149C0
:1001200013F0010018BF01200F4B08701A689200ED
:1001300005D50C4901204FF0807208701A600B4BF6
:100140001868431C02D1074A012111700023084995
:10015000002058540133802BF9D1064A10707047A3
:10016000000C0140CA0200202410024004300008A4
:10017000CB020020C902002008B5034B0146034A08
:100180001878904708BD00BFC9020020B9070008D1
:1001900008B5024B02491878884708BDC9020020FB
:1001A0007D07000838B5134DA84731282B46044673
:1001B000114D15D008D8022812D001D880B113E013
:1001C00011280DD021280AE0732809D004D8A0F105
:1001D0004302012A08D803E07F2802D0FF2803D178
:1001E00098477920A84702E01F2003498847204606
:1001F00038BD00BF910100087901000837B504231C
:100200000E488DF80730804735200D498847002279
:100210000C4D002454550132802AF9D10A480B4B69
:1002200098478DF807009DF80710012004292870D1
:1002300002D00748804720463EBD00BF0921000884
:1002400031210008CB02002000300008E92100081D
:100250002121000873B51149042388428DF8073025
:1002600019D900F17844A4F540500D4E840A355D4B
:100270000DB1012010E004F500320C329002094B60
:1002800098478DF807009DF8070001210428315593
:10029000EFD0054A904700207CBD00BFFF2F00082B
:1002A000CB020020E9210008212100082DE9F341BB
:1002B00095088846134BA90718BF0135074698478C
:1002C00010B14446002618E0002019E06078A178BB
:1002D0000302227843EA0143E17842EA0161C8EB74
:1002E000070210191943084B98478DF807009DF82D
:1002F000070004340428E7D10136AE42E6D10120DC
:10030000BDE8FC81550200089D21000838B50A4B64
:1003100064200A4C1D68A047094880476420A04714
:100320000849094B4FF0FF3200200A601A6008604C
:100330001860A84738BD00BF04300008FD09000858
:1003400029110008101002400C1002402DE9F04362
:10035000CDB0404B984718B93F4FB847222007E02F
:10036000022809D101203C4FB8470420B84710208B
:10037000B8477920B847ECE743280CD1374EB0474F
:100380008DF80400B047364A8DF8050090470128E3
:100390003AD1792039E031283CD100252E462F4F23
:1003A000B84701AC30550136042E85EA0005F6D178
:1003B000B84794F8009063784FEA0962A77842EA58
:1003C0000341E47841EA0726A84246EA0409224D9F
:1003D0001ED17920A8472148804700250446461CA5
:1003E000DFF87880C04701AFE85501354440B54299
:1003F000E4B2F5D3C04739460546324609F54050C8
:10040000184B9847A542C2D01F2013498847A0E740
:100410001F20DFE721289CD10025104EB04701ACFA
:1004200060550135042DF8D1B04722786078A37863
:10043000170647EA0041E47841EA03267920064A94
:10044000904746EA04056420074FB8472846074905
:1004500088477EE7A501000879010008910100089E
:10046000FD010008AD020008FD0900080D030008A9
:10047000684620F007018D4601B500232D4A2E491C
:100480009818884204D22D48195899500433F5E73A
:10049000334834494FF000028842B8BF40F8042B7B
:1004A000FFF6FAAF264B27491A6842F00100264AA8
:1004B0001860106801401160186820F0847121F400
:1004C00080301860196821F480201860116821F4C8
:1004D000FE004FF41F01106051601C4A4FF0006095
:1004E00010601B481B4A4FF0FF3101601160002172
:1004F00001601160186840F480321A6042F61043BF
:100500000F490868820301D4013BF9D112490A68F6
:1005100042F0100008600B6823F003020A600868CC
:1005200040F002030B600D498847BDE80140854655
:10053000704700BF00000020E400002010230008E6
:10054000001002400000FFF80410024008ED00E037
:10055000101002400C100240002002401D00000854
:10056000000200202C13002008B50D4B98470D48C1
:1005700080470D4A0D494FF0333313600C485160EA
:10058000C2F80034C2F804340A4B0B4A1860904792
:100590000A4988470A4880470A4B984708BD00BF68
:1005A000110800089508000800080140B3343333EF
:1005B00044444433041001403D0700081509000875
:1005C000B10B0008350B000807B5074B02A91868E6
:1005D000064A01F8010D0120904705494B6913B106
:1005E0009DF8070098470EBD04440040690A0008C2
:1005F0004C03002007B5074B02A91868064A01F80A
:10060000010D0020904705498B6813B19DF8070044
:1006100098470EBD04380140690A00084C030020C9
:10062000034B19680B06FBD5024A1060704700BFE8
:100630000038014004380140124B10B55860124890
:1006400099600268114C42F4804101600C2310480B
:10065000236000220F4B40F271210260426040F89B
:10066000081C186840F02001196023680A4943F00B
:1006700020002060094B25209847226842F4005151
:10068000216010BD4C030020181002400C380140BE
:100690001038014004E100E0F5050008A508000855
:1006A0001E4B10B518611E481E4C0268596142F479
:1006B00000310160236823F470602060226842F4F6
:1006C00040712160236843F400602060226822F4B6
:1006D0007041216023680C2123602068124B40F494
:1006E00080422260114C00224FF49C7021601A60FD
:1006F0005A6043F8080C0E4B196841F0400018602E
:100700002368262043F0200121600A4B0A499847BC
:10071000226842F40050206010BD00BF4C0300204E
:100720001C10024000080140104400400C440040EE
:1007300004E100E0A5080008C905000810B50B4B4E
:10074000984700200A4A002481180C3048284C6041
:100750008C60F7D121464FF4E130064B98474FF4B7
:10076000E1302146044A904710BD00BF110A00083D
:100770004C03002039060008A106000813B5002329
:10078000052804468DF8073002D1084880470BE061
:100790002046074988470028FAD020460DF1070176
:1007A000044A90479DF807001CBD00BFE90B0008F4
:1007B0005D0A0008C10A0008012808B50AD005D35F
:1007C00005280ED10846074B98470AE00846064917
:1007D000884708BD054802681206FBD5044B19601E
:1007E00008BD08BD150C00082106000800440040A3
:1007F0000444004038B505464C1E14F8011F19B1D9
:100800002846024B9847F8E738BD00BFB9070008F3
:100810001D4B1A6822F47C1020F0F00119601A6850
:1008200042F4E810194A1860116841F080701060B5
:1008300011688901FCD51A6822F003001860196854
:1008400041F002021A60186820F4800119601A68E9
:1008500022F4E0601860196841F480621A60186838
:1008600020F4605119601A681A60074B186800F08C
:100870000C010829F9D1064B1A6842F4804040F077
:100880001D011960704700BF0410024000100240B3
:1008900018100240014B024A1A60704708ED00E050
:1008A00000040020024B103043F82010704700BFB6
:1008B00000040020024B800843F82010704700BF5E
:1008C0000004002008B53C2002490022024B984752
:1008D00008BD00BFC1090008B50800080B4B0C4A51
:1008E00000201A60586053F8041C41F0040243F8D9
:1008F000042C53F8040C40F0020143F8041C53F894
:10090000042C42F0010043F8040C704714E000E0AE
:100910003F19010008B50D4B1878012814D00C4B75
:1009200003F1A001002203F8082C23F8062C23F879
:10093000042C43F8102B8B42F4D106488047064B19
:100940009847024A0121117008BD00BFA002002093
:1009500008020020C5080008DD08000838B5154B5E
:1009600015491A68501C18600C88A5B21DB10B8877
:100970005A1E90B20880114C04F1A00514F8081C0E
:10098000012912D134F8063C5A1E90B224F8060C04
:1009900058B914F8071C34F8043C012908BF04F8BE
:1009A000080C24F8063C226890471034AC42E5D18C
:1009B00038BD00BFA4020020A802002008020020C9
:1009C00008B5014B984708BD5D09000810B5054CF6
:1009D00004EB00108360029B4270C3604180818001
:1009E00010BD00BF00020020092803D8024B0001FF
:1009F00001221A54704700BF00020020034B1880E8
:100A00001A8890B20028FBD1704700BFA8020020CE
:100A100000230449044800225A521A5202330E2B72
:100A2000F7D170478606002094060020084B09493C
:100A300033F9102031F91000131A074820331840F9
:100A4000002803DA421E62F01F01481C704700BFF5
:100A500094060020860600201F00008008B5014B88
:100A6000984708BD2D0A000838B5114B04460D46BD
:100A700098471F281AD00F4A212032F814302D78B9
:100A800019B200FB04110C480133455499B20B4BC9
:100A900008B20340002B22F8141003DA013B63F084
:100AA0001F014B1C22F81430012038BD002038BD36
:100AB0002D0A000894060020900500201F000080E9
:100AC00038B5104B04460D469847C8B10E4A212050
:100AD00032F8143019B200FB04110C480133415CA8
:100AE00098B20B4B297001B20B40002B22F8140076
:100AF00003DA013B63F01F00431C22F8143001208D
:100B000038BD00BF2D0A0008860600209005002091
:100B10001F00008030B1012809D1054B1A6842F04E
:100B2000200003E0024B196841F010001860704784
:100B30000C0C014008B5134B1A6822F0E0601860F5
:100B4000196841F080621A600F4B186820F4702118
:100B500019601A6842F440301860196819601A6800
:100B600022F0F0501860196841F0C0621A601868ED
:100B70001860D968012041F01002DA60034B9847F1
:100B800008BD00BF04000140000C0140150B000827
:100B900030B1012809D1054B1A6882F0200003E02A
:100BA000024B196881F01000186070470C0C01406E
:100BB00008B5074B98470748002207490260884755
:100BC000064B9847064A90470648804708BD00BF35
:100BD000210C0008A406002099110008B511000896
:100BE000CD110008551C000807B500238DF807300B
:100BF0000020064988470028FAD000200DF107019F
:100C0000034A90479DF807000EBD00BF690C00081D
:100C1000D10C000808B5014B984708BD45130008E2
:100C2000024A03480023138003807047AA0A002069
:100C3000AC0A0020094B0A4933F9102031F91000A1
:100C4000131A084803F580621040002805DA411E97
:100C50006FEA81506FEA9053581C7047AC0A00202D
:100C6000AA0A0020FF03008008B5014B984708BD81
:100C7000350C000838B5124B0D460446984740F233
:100C8000FF31884219D00F4A04EB842032F8143027
:100C90002D7819B241180C48013345540B4819B24C
:100CA0000840002805DA01386FEA80536FEA935153
:100CB000481C22F81400012038BD002038BD00BFB8
:100CC000350C0008AC0A0020A8060020FF030080B5
:100CD00038B50F4B04460D469847C0B10D4A04EB9A
:100CE000842032F8143019B241180B480133415CAA
:100CF00018B2297009490140002905DA01396FEA63
:100D000081536FEA9350411C22F81410012038BD22
:100D1000350C0008AA0A0020A8060020FF03008066
:100D200038B513490B78012B21D1124A13680BB93E
:100D30000B7038BD104C402B206881B205D9403073
:100D4000403B20601360402504E09DB2C3180020A2
:100D500023601060094A0A4B5018C0212A46984760
:100D600001202946074A904701200749884738BD96
:100D7000B8020020C4020020C0020020F20A0020B5
:100D80008D1C0008A11E00087D1D000810B5064C32
:100D9000064B214603209847054AC1B2204690479A
:100DA00003200449884710BDB00A0020451F0008F1
:100DB000751200089F1D000808B5074B1868052824
:100DC00009D1064B1A68511C052A196003D100206D
:100DD0001860034B984708BDB4020020AC02002005
:100DE000A912000838B5194B194A1968194D88B26B
:100DF000108014882988214001F4007082B24AB121
:100E00004FF6FF541C60144B144A1D78691CC8B27D
:100E1000187090470E4C0F4B25881988294001F413
:100E2000004082B225461C460AB10D4B98472988DE
:100E30002088084000F4806293B233B10348094A25
:100E40004FF6FF3101605368984738BD445C00405D
:100E5000F00A002024130020B0020020B90D000881
:100E6000751F00085C000020034B987A10B10349FD
:100E700005220A60704700BF00130020B402002062
:100E8000014B04221A607047B4020020034B1A7809
:100E9000202A01D100201870704700BFB102002045
:100EA00070470000212810B508D11148036819784F
:100EB00001F07F02212A11D0022010BD2028FBD191
:100EC0000B4B19680A780B4902F07F030A4A212B61
:100ED0000CBF0B46002310700BB9EDE7074B044C19
:100EE000206800248361448220469847204610BD34
:100EF000201300204D0F0008B1020020350F00081C
:100F0000074B19680A7802F07F03212B05D10228CC
:100F100001D1002070472228FBD00220704700BF7B
:100F20002013002009B1022070470128FBD8084691
:100F30007047000020B9034B082219680A827047E5
:100F40000148704720130020D800002020B9034B2F
:100F5000082219680A827047014870472013002050
:100F6000D800002008B5064B1968CA78042A05D8AD
:100F7000044B03EBC201044A904708BD002008BDA2
:100F800020130020B80000205917000808B50249B6
:100F9000024B984708BD00BF5400002059170008B5
:100FA00008B50249024B984708BD00BFB0000020B9
:100FB00059170008304A314BD17918682DE9F047AC
:100FC000002441728472C4722D4D2046A8472D4ED4
:100FD00020464FF40071B0472B4D10212046A84702
:100FE000DFF8C0A040212046D047DFF8BC80802138
:100FF0002046C047254F2046B847254B204693F84A
:101000002C10DFF8A890C847224A204690470120BC
:101010002146B0470120C021C04701202021A84718
:101020001D4F01202146B84702204FF4C061B04750
:1010300002204FF48071C04702202146B8470220A9
:101040002021A84703202146B04703204FF4887190
:10105000D04703204021C84703204FF44051B847F0
:1010600003202146A84720460C4988470C4B012005
:101070001860BDE8F08700BFCB22000820130020D5
:10108000E11C0008F11C0008091D0008C11D000832
:101090005C0000209F1D0008431D0008A91B0008DC
:1010A000B4020020491E0008291E0008BD1E0008C9
:1010B00010B5094B984709493220884708488047AE
:1010C000084A0024136808499C72884707488047EB
:1010D000074A146010BD00BF29110008FD0900086F
:1010E0007513000820130020F5100008251F0008C4
:1010F000B402002008B50120074B9847074B084968
:10110000012200201A601860086006494FF4E0527E
:101110000A801A6008BD00BF5D120008405C0040F4
:10112000445C00402413002038B50648064D0024D6
:1011300001232B60054904602046884703222A606A
:10114000204638BD445C0040405C00405D12000811
:10115000024B4FF480221A60704700BF1404014014
:1011600010B50131002393420ED0040F092C01D891
:10117000303400E0373401F8014C01330024000121
:1011800001F8024BDBB2EEE710BD000008B5014BE1
:10119000984708BDE50D0008054B1A6822F4700059
:1011A0001860196841F400121A60186818607047D6
:1011B00004100140044B1A6822F4800018609969F9
:1011C00041F400029A617047041002401B4B4FF437
:1011D000802210B51A6053F8140C194C20F48021A9
:1011E00043F8141C226822F480202060616841F4D6
:1011F00080226260A06820F48021A16053F8144C22
:10120000902044F4802243F8142C0E4900220E4C06
:10121000A0470E4B0022186840F480111960E820A6
:101220000B49A0470B4B0C491A6842F480601860C8
:101230000B6843F480220A6010BD00BF1404014013
:10124000040401408D110008B508000800E100E029
:101250005111000804E100E010040140044B1A6839
:1012600010B122F4005001E042F4005018607047C1
:101270000C10014073B506460D460024AC420ED258
:10128000325D02A901F8012D0020054B9847054861
:10129000016811B19DF8070088470134EEE77CBD75
:1012A000750C0008A406002038B51E4B18780128DC
:1012B00037D01D490A68B2F5006F01D100230B60D9
:1012C0001A480B6801688B4203D1164B0020187036
:1012D00038BD174C8CBFC3F50061C3EB0101216021
:1012E00024681349402C104A98B205D94033403C39
:1012F00013600C60402504E0E318A5B200241360DD
:101300000C6008490B4A012410180C702A46C021B1
:10131000094B984720462946084A904720460849E5
:10132000884738BDB8020020C0020020BC0200205F
:10133000C4020020F20A00208D1C0008A11E000833
:101340007D1D0008084B19684A1CB2F5006F0AD2CF
:10135000064B07491A688854501CB0F5006F08BF47
:10136000002018607047FEE7C4020020BC02002085
:10137000F20A002038B5084B93E8240008331868B7
:10138000101807D005490822054CA04728460549F2
:101390000422A04738BD00BFE8F7FF1F020000206D
:1013A000611100081200002010B5064C18B923681E
:1013B00001221A8210BD044B186801688847206812
:1013C0000A3010BD201300201C13002010B5064C5D
:1013D00018B9236801221A8210BD044B186881686D
:1013E000884720680C3010BD201300201C130020FB
:1013F00008B5234A18B9136802221A8208BD214B86
:10140000002012681880117811F07F0113D1507AF2
:1014100000F02002D1B209B102221A7000F040039C
:10142000D8B2184B18B11A7842F001011EE01978B1
:1014300021F001011AE001291FD002291ED15079A3
:1014400000F00F024FEA820110F0800F01F180409E
:1014500000F5B842116803D001F03002102A03E011
:1014600001F44050B0F5805F01D101211970064BA5
:10147000186801698847034808BD184608BD00BFC1
:1014800020130020F21200201C130020F8B5224B7C
:101490001C68238A267AABB9042E13D11F48204931
:1014A0000278012A0AD11F4C226894B21E4AA2185F
:1014B0005200136030220A80037028E010260E804C
:1014C000072624E0A58AA169AB428CBF0226042628
:1014D0009D4228BF1D4628468847144A07460020DB
:1014E00090472A460146124B384698472946002025
:1014F000104A9047208A638A411BED1808480E4B1A
:10150000218230224FF44051028065821980024BC3
:1015100018680672F8BD00BF20130020C802002022
:1015200028130020505C004002300020691E000893
:101530008D1C0008A11E00082613002010B50A4BC0
:101540000A4918684B78C27893420AD3817841B926
:10155000848834B9827206480268536898472046E6
:1015600010BD022010BD00BF20130020E0000020AD
:101570001C13002038B50E4A0E4C1068236882698F
:10158000D9785879904721688B7A7BB170B90879FE
:1015900060B98D7855B9084A1168CB6898472068BA
:1015A0004279C178C2720173284638BD022038BD25
:1015B000F8120020201300201C13002010B5324B1D
:1015C0001B68187810F07F0004D1597A21F02002AE
:1015D0005A7210BD022855D15A88002A53D1197960
:1015E000002950D15A7922F080004FEA800404F19A
:1015F000804101F5B8442168244C12F0800F247812
:1016000014BF01F0300101F44051A0423AD2002948
:1016100038D09B7A002B35D0840002F0800204F190
:101620008043D1B203F5B844226861B102F03001C1
:10163000102921D1C4B22046154A904720463021B6
:10164000144B984718E002F44051B1F5805F13D174
:1016500028B9114A114B92F82C10984701E0104B11
:10166000984720684BF68F71014081F4405242F454
:10167000004343F0800020600A4801684A699047AF
:10168000002010BD022010BD20130020E00000202B
:10169000031E0008091D00085C000020BD1E000894
:1016A000DF1D00081C13002010B51F4B19684A7974
:1016B00022F080034FEA830000F1804404F5B84033
:1016C0001A4C0068247812F0800F14BF00F030002C
:1016D00000F44050A34224D24C8814BB08B3897A4A
:1016E000F9B19B0003F1804102F0800201F5B8439B
:1016F000D0B2196828B148F6BF720A4082F01000D3
:1017000004E04BF68F720A4082F4805040F40041AE
:1017100041F080001860064B1A68916988470020E4
:1017200010BD022010BD00BF20130020E0000020EB
:101730001C13002008B5064B1868064B427A42F08D
:10174000200141721868C2699047002008BD00BF9F
:10175000201300201C130020054B1A68538A18B967
:101760008988CB1A138270470868C018704700BF79
:101770002013002008B50B4B002093F82C100A4AC8
:1017800090470A480168087A082806D1084B4FF4A8
:1017900080521A80074A10211180B0F10903584283
:1017A000584108BD5C000020BD1E00082013002029
:1017B000261300202813002070B52E4B1C68207AB9
:1017C00002284FD004284DD0032801D0052843D14A
:1017D000A169208AA9B1A0B1A58A854228BF054682
:1017E00028468847228A0646608A531B2918238286
:1017F0006182214A002090472A4601461F4B30460D
:101800009847208A50B11E4A00204FF44051118061
:101810001C4B014698471C4930200880238AA28A25
:1018200014489A4202D80168032202E01BB1016801
:1018300005220A720CE0026806211448117202683F
:10184000134891B20A1851000B600F4B30201880DA
:1018500008480368197A06E0072803D10D490A6889
:10186000D36898470821034A0B4B106801729847C8
:1018700070BD00BF20130020851E0008BB1C00089F
:1018800026130020A11E000828130020505C0040F1
:1018900002300020F812002075170008924BF7B5AF
:1018A0001A68924990B24418914E65002A683568CA
:1018B0002B7A092B14D097B2780000F1804101F502
:1018C000C04422788B4F2A7063786B70A088B84729
:1018D000688020893568B847A880A0893168C880A9
:1018E000834D01242B68DA881C725C78002A60D151
:1018F000187810F07F0236D1092C01D17E4B41E0DF
:10190000052C0FD193F90310002901DA08214CE0CE
:1019100098780028FAD19A88002AF7D19B7A002B70
:1019200035D0F3E7032C0FD1D878012807D07349BD
:101930000868426920469047032826D134E09A88F7
:10194000002AF4D16E4B1DE0012CF0D1D978012989
:10195000EDD198880028EAD15A7A02F02003D9B252
:101960000029E4D009E0012A03D10B2CDFD1654B1B
:1019700008E0022ADBD1012C01D1634B02E0032CE9
:10198000D5D1624B984710B1D1E70028BED1564B54
:101990005F4A196888B2831859005E4B00203022D4
:1019A00008601A80062100E009215148026811727E
:1019B000E0E0062C13D11C7861067BD19A784F4B5E
:1019C000012A02D11C68E3696AE0022A02D1186880
:1019D000036A65E0032A6DD119684B6A60E0002C48
:1019E0003ED15988002965D1586820F47F42B2F56C
:1019F000003F5FD11C7814F07F0004D19888002844
:101A000000F0BB8056E001280CD13C4A587914689C
:101A1000A269904700284DD12B68997A002940F09F
:101A2000AC8047E0022845D15B7903F00F014FEA13
:101A3000810202F1804404F5B840374C02682078F6
:101A400013F0800F14BF02F0300202F440528142C2
:101A500030D213F0700F2DD1002A40F08E8029E093
:101A6000082C04D119784A0600F0898022E00A2C5B
:101A700020D1187800F07F0101291BD19C7ACCB1CC
:101A80005988B9B95A6822F47F40B0F5803F11D126
:101A90001A4C587922689469A047002871D009E04F
:101AA00043B113480024016820464C828B6198475B
:101AB00020460AE0114A0E4C116823680A695878DA
:101AC0009047032801D1236806E0094B4FF6FF71C8
:101AD0001B681A8A8A4201D1092103E0022800D03A
:101AE000E2B90821197245E0505C00400430002042
:101AF00020130020191F00083D150008F8120020CF
:101B00003517000875150008BD150008A91600084E
:101B10000230002028130020E000002093F900008C
:101B2000002821DAD98801910198824202D9019ACC
:101B30001A8211E08A420FD21349086890F82C10DB
:101B40008A4201D2002105E092FBF1F001FB102254
:101B500012B901210D4801700B49086890F82C203A
:101B60009A820B4B984705E003221A72094B4FF4F7
:101B700040511980084B9847FEBD084B91E7084B30
:101B80008FE7084B8DE700BFF8120020C802002045
:101B90008D1400082613002075170008F1130008A3
:101BA000A9130008CD13000870B50D4B1C78002355
:101BB000A34210D203F1805202F5B855A90043F4B4
:101BC00000420E6842F0800540F60F7232402A4310
:101BD0000A600133ECE7034940F08000086070BD03
:101BE000E00000204C5C004010B513490B680C4627
:101BF0001A7A022A01D0042A04D1104B984722688D
:101C0000117A13E0062A10D15878052809D11978DD
:101C1000480606D1D8780A4B98470A4A1068016AE4
:101C20008847094B1A689068804708210248036872
:101C300019720649884710BD201300208D14000832
:101C4000A91B00081C130020F812002075170008BB
:101C50007047000008B5074A074B0220136018724E
:101C60000649074B0748084A0B6010601B689847F5
:101C700008BD00BF2013002000130020F812002030
:101C80005C0000208C0000201C13002030B501F106
:101C9000005101F540530132590052100023023027
:101CA000934209D010F8015C10F8024C44EA052474
:101CB00021F823400133F2E730BD01F1005110B5A6
:101CC000013201F54054521064000023934205D0C4
:101CD00054F8231020F813100133F7E710BD00006B
:101CE0004FF6F873014A034013607047505C0040A0
:101CF000800000F1804202F5B842106848F68F1368
:101D00000340194311607047800000F1804202F5E2
:101D1000B842106848F6BF73034001F0100080B26B
:101D200008B99BB201E083F0100301F0200188B2F2
:101D300008B183F0200343F4004141F080001060BB
:101D40007047800000F1804202F5B84210684BF6FF
:101D50008F73034001F4805080B208B99BB201E058
:101D600083F4805301F4005188B208B183F4005326
:101D700043F4004141F0800010607047800000F1A2
:101D8000804202F5B840016848F6BF730B4083F00B
:101D9000300242F4004141F080030360704780004C
:101DA00000F1804202F5B84001684BF68F730B409A
:101DB00083F4405242F4004141F0800303607047D5
:101DC000800000F1804202F5B840016840F60F63E0
:101DD0000B4043F4004242F08001016070478000F4
:101DE00000F1804303F5B8400268510408D501684A
:101DF00040F60F730B4043F4404242F08001016013
:101E00007047800000F1804303F5B8431A6850061C
:101E100008D5196840F60F70084040F4004242F0BF
:101E2000C001196070470000064B49081A6893B258
:101E300003EBC00000F1005202F5405358004A0085
:101E400002607047505C0040054B49081A6893B225
:101E5000044A03EBC000831858004A000260704730
:101E6000505C004004300020054B19688AB202EB38
:101E7000C00000F1005303F540514A00108870473C
:101E8000505C0040044B1968044B8AB202EBC0005E
:101E9000C1184A0010887047505C00400430002090
:101EA000044B1A6893B2044A03EBC000831858002D
:101EB00001607047505C0040023000200C4B1A68F3
:101EC00093B20C4A03EBC00083185A003E2908D98C
:101ED0004B09C90601D1581E83B2990241F4004151
:101EE00004E04B08C80748BF0133990211607047EE
:101EF000505C004006300020054B1968054B8AB243
:101F000002EBC000C1184A0010688305980D7047A5
:101F1000505C004006300020C3B2000A40EA0320B3
:101F200070470000044B00201860044A044B4FF433
:101F30000641118019607047445C00402413002062
:101F4000405C004070B500F07F05074B28460E4608
:101F50009847064904462846884722460146044BCE
:101F600030469847204670BDF91E0008851E0008BF
:101F7000BB1C000837B50023ADF806305748584B56
:101F8000026891B21204198040F1A6801888554960
:101F900000F00F020A70002A6CD1534C2568AAB2D7
:101FA000524D2A802988524A01F030001080298839
:101FB0004BF6BF7201F44050288021680A4082F439
:101FC000005080F0200141F4004242F08000206087
:101FD0001B8803F010018AB232B9206848F60F73EB
:101FE00003402360434B1BE0206883B2ADF806300A
:101FF000BDF8061001F4006290B230B1216840F6DD
:102000008F720A4022603C4B0AE0BDF8063019B2DC
:102010000029B3DA226840F68F701040374B2060F9
:10202000984721682A884BF6BF7302F480500B4012
:1020300081B209B183F480532C4A108800F4005116
:102040008AB20AB183F400532948018801F01002D2
:1020500091B209B183F01003008800F0200291B220
:1020600009B183F0200343F400401F4A40F080018F
:10207000116031E0930003F1804000F5B843196826
:1020800088B2ADF80600BDF8061008B2002809DADB
:10209000186840F68F7101401960194B013A53F8E6
:1020A00022008047BDF8061001F0800293B2002B99
:1020B0003FF464AF0B480278910001F1804303F5CF
:1020C000B841086848F60F7303400B600D49013AA8
:1020D00051F82200804751E73EBD00BF445C0040FC
:1020E000F00A0020FC120020005C004026130020B3
:1020F00028130020E91B00089D180008B9170008E4
:10210000380000201C000020034A044B02F18830F4
:102110005A605860704700BF2301674500200240A5
:10212000024B1A6942F0800018617047002002409B
:10213000014BD860704700BF00200240084BDA68AE
:10214000D10709D4D868420708D4D96811F0100F14
:102150000CBF042003207047012070470220704705
:102160000020024013B50C4B0446984701280FD1BC
:1021700064B100200190FF200190019911B1019BF1
:10218000581EF9E7044A9047013CEFE7052002E0BA
:10219000002C08BF05201CBD3D210008F8B50646EF
:1021A0000F4D0F200F46A847042817D10D4CB9B288
:1021B000236943F0010020610F203180A8470428E3
:1021C00003D13F0C77800F20A847012801D10120BF
:1021D000F8BD226941F6FE7313402361F8BD00BFCC
:1021E000652100080020024070B506460D4D40F6FE
:1021F000FF70A847042813D10B4C236943F0020059
:1022000020616661216940F6FF7041F04002226161
:10221000A847012804D0216941F6FD730B402361D2
:1022200070BD00BF65210008002002400D0A426F0A
:102230006F744C6F61646572203A205631343130CE
:10224000303652310D0A00526561647920746F2076
:10225000646F776E6C6F61642E2E0D0A0026034F3B
:102260000052004F004300410020002000200020C9
:10227000002000200020002000200020002000205E
:1022800000200012010002020000408304405700B9
:10229000020102030104030904320353006B0079B5
:1022A0000052006F00760065007200200043004F6E
:1022B000004D0020002000200020002000200020F1
:1022C000002000200020002000200009024300021E
:1022D0000100C032090400000102020100052400CF
:1022E0001001052401000104240202052406000156
:1022F000070582030800FF09040100020A0000002C
:1023000007050302400000070581024000000000AD
:102310001A03530054004D00330032000000000047
:10232000000000000000000000000000210D000877
:10233000511C0008511C0008511C0008511C0008C9
:10234000511C0008511C0008511C0008511C0008B9
:102350008D0D0008511C0008511C0008511C00087C
:10236000511C0008CB22000843000000B1100008F7
:10237000B50F00088D0E0008A10E0008A50E00087C
:10238000010F0008250F0008A10F00088D0F00089D
:10239000650F00080000000040000000511C00080C
:1023A000690E0008511C0008511C0008511C00084F
:1023B000511C0008511C0008511C0008810E000827
:1023C000832200081200000095220008040000008B
:1023D0005D2200082600000099220008320000005B
:1023E000000000201A00000000C2010000000800E8
:0423F00004010000E4
:04000005080004717A
:00000001FF
